:0400000080314328E0
:100008007E14803120007F08FD008B1A0B1D1028FC
:100018008431F52480313E280B1F1C282100921DB5
:100028001C282000921D1C288531732580313E280C
:100038000B1F28282100911D28282000911D282801
:100048008031632080313E280B1F34282100931C07
:1000580034282000931C342885311C2580313E2803
:100068000B1F3E282100911C3E282000911C3E2891
:10007800853128257D082000FF007E100900803189
:1000880045283430840085308500A0308600003053
:1000980087000830853143258031F001F101F201F4
:1000A800F301F401F501F6015130840000308500B8
:1000B8001830853149257E1020008131A329200080
:1000C80091112400951F972995132000DD017308CD
:1000D800023E860087010108860087018101810AA6
:1000E800F3010800D31808005208F9007908F30052
:1000F8005208860087010108F9007908DC005208D7
:1001080086008701413FF4000330F9007908D207DF
:100118005208693A031D94286630F9007908D2001C
:100128005310520851060319D31424001614023030
:10013800F90079082000DD00080024009614023038
:10014800F90079082000DD0008002400161FB528F2
:100158000130F90079082000D507043084318E2455
:1001680008007608FA007508F900FA36F90C7908DB
:1001780024009100751CC6280B30F900790820006E
:10018800DD0008000330F90079082000DD000800D0
:100198002400161FD8280130F90079082000D50757
:1001A800043084318E24080096147608FA00750805
:1001B800F9007A08F900FA0106307905FB000030E9
:1001C8007A05FC00F0307B04F50000307C04F60072
:1001D80075142000D901D90A0230F9007908DD0028
:1001E8000800590303190929740886008701403F4C
:1001F800F500413FF600740886008701433FDB00A5
:10020800740886008701423FDA00750824009100CF
:10021800751C14290530F90079082000DD00080054
:100228000330F90079082000DD0008002400161FBB
:1002380028290130F90079082000D5072400161371
:10024800053084318E24080001302000DA025A0A71
:10025800031D42290430F9007908F4070130DC0253
:10026800031D3A29003084318E2408002400961496
:100278000230F90079082000DD0008005B088600DC
:1002880087010108240091000130F9007908200055
:10029800DB0708002400161F5C290130F9007908E3
:1002A8002000D507043084318E242400161308005A
:1002B80096150830F90079082000DD00080008309C
:1002C800F9007908DD0024009615080024001108BB
:1002D800F90020005B088600870179088100013059
:1002E800F9007908DB070130DA02031983292400B1
:1002F80096120630F90079082000DD0087292400CD
:1003080096168431E424240016160800003084313F
:100318008E2408000130F90079082000D50706303E
:1003280084318E24080020005D0884000C3004020B
:1003380003188E2984310435763E82000800843102
:100348004124813122000E148B170B172000CF0196
:10035800D00122000E100030853110258131200097
:10036800B800B9013808CF073908D03D0830CF3573
:10037800D00D890BBB290030853110258131200033
:10038800B800B9013808CF073908D03D22000E144B
:1003980020005008B9004F08B800B936B80CB93673
:1003A800B80C381CDA29CF01D001F8295008B90057
:1003B8004F08B800B936B80CB936B80CB936B80C0D
:1003C8003808CF003908D0005008A1004F08A00015
:1003D8001930A2000030A300843125248131200087
:1003E8002108D0002008CF005008B2004F08B10003
:1003F8000A30B3000030B4003A308331A123813190
:100408002000CE013A3083317C23813120004E0810
:10041800B800B90121083902031D142A200838023E
:100428000318222A4E083A3E86008701010803195C
:10043800222A0130B8003808CE07062AFF30B80053
:100448003808AE0020308331C52381310B302000BD
:10045800B9002630B8005D30890B302AB80B302A35
:10046800B90B302A00322000AE0120308331C52379
:1004780081310B302000B9002630B8005D30890B7F
:10048800432AB80B432AB90B432A0032AA29200071
:10049800B0002908AE002808AD002B08A1002A08E2
:1004A800A0002E08A3002D08A2008231F22282317A
:1004B80020002108AE002008AD000130AC002C0857
:1004C800B0072D082E04031D512A30088600870125
:1004D80081010130B0022B08A1002A08A0002908D8
:1004E800A3002808A2008331272382312000200896
:1004F800AC002C08AF002B08A1002A08A00029088E
:10050800A3002808A2008231F222823120002108AB
:10051800A9002008A8000A302F02031C972A0730D8
:10052800AC002C08AF073030AC002C08AF072F0800
:10053800AC003008860087012C0881000130B00229
:1005480028082904031D6F2A0130AC002C08B007C5
:1005580008002000A3005318E12A0230A200210855
:1005680086008701220881002008A200510A86001F
:100578008701220881002308A2005108860087010C
:10058800220881002108A2005108023E8600870146
:10059800220881000330A2002208D1075108693AD5
:1005A800031DDA2A6630A2002208D100D3105208AF
:1005B8005106031DE62A5314E62A210886008701FE
:1005C8008101810A21088600870102300106031D86
:1005D80008005D08031DED2A911508002000A501FB
:1005E800A601200821040319222BA701A70AA11B91
:1005F800072B0130A035A10D890BFE2A0130A4007C
:100608002408A707FB2A0130A535A60D890B082B5E
:1006180021082302031D122B20082202031C192B78
:100628002008A2022108A33B25140130A136A00C02
:10063800890B1A2B0130A702031D072B2608A100DE
:100648002508A000080020002008210403194F2BCA
:10065800A501A50AA11B3A2B0130A035A10D890BD4
:10066800312B0130A4002408A5072E2B21082302D2
:10067800031D402B20082202031C462B2008A2023F
:100688002108A33B0130A136A00C890B472B013070
:10069800A502031D3A2B2308A1002208A000080088
:1006A8002000AD005318752B2D08AB002B08A000B7
:1006B8002708AC002C08A1002908A3002808A200DC
:1006C80062308331E623833162302000AB002B088F
:1006D800A0002A08AC002C08A10001308231AD220C
:1006E800080020002A08860087018101810A080085
:1006F8002000A6002608A2002208A70027088600D6
:100708008701010803198D2B0130A2002208A707D1
:10071800822B2608A2000030A300A209A309A20A7E
:100728000319A30A2708A4000030A50022082407FB
:10073800A0002308253DA10008002000B7003708C5
:10074800B5003508B600B21FB92B2D30B5003708F3
:1007580086008701350881000130B5003508B707E4
:10076800B109B209B10A0319B20A3208A90031085D
:10077800A8003408AB003308AA00370882314B229E
:1007880008002000B2002E08AF002F08B300023086
:10079800AF002F08B500A701A70A3208AF00B001C3
:1007A8002F08A8003008A9003530B1003108AA0088
:1007B8003330833154238331023020003506031D42
:1007C8000800E02B2000A6002308A5002208A400AA
:1007D800A435A50D2608860087012408C03F2508F2
:1007E800C13F2108A4002608023E8600870124088C
:1007F80081002008A4002608033E860087012408FB
:100808008100080022008C018D018E013F302100FB
:100818008C0070308D00F8308E00013023008E007F
:100828008D0117308C00F03024008D003F308C0093
:10083800FF308E002100951322009E0184309D0018
:1008480008002000A401A501201C2E2C2208A407C2
:100858002308A53D0130A235A30D890B2F2C0130AB
:10086800A136A00C890B342C20082104031D282C48
:100878002508A1002408A00008008431062484313A
:1008880085316125843185316625843184315C2444
:10089800843185313C258431853103258431843187
:1008A800A62484318431D02484318431BB240800C7
:1008B80066302000A0002008D2006630A000200882
:1008C800D100D3145310D50180302400940028306F
:1008D80095000830970013309200200091112100F4
:1008E80091150800803176288031A1288031F528BB
:1008F80081311A2981318A2981314E29813163292F
:1009080081318A2981316A2981318E298031A9284A
:100918008031CC28F800240016157308023E8600A2
:10092800870101080319A32C7808F7007308023E11
:10093800860087010108860087017708810020006A
:10094800DD0108000330280097001E30960095014D
:10095800200093102100931470302000A00005306F
:10096800A10085314F25843185316A250800210091
:100978001508C0391338950083302000950083305E
:10098800A2002208EF000B118B167230A000053070
:10099800A10085315B250800033020009C001E3033
:1009A8009B009A0191102100911471302000A00041
:1009B8000530A10085315525843185316D25080024
:1009C8000430F7007708F40701302000DC02031D2B
:1009D800F22C0430F7007708DD000800DD01DD0A9D
:1009E80008000B1120006F0895006D086E040319AC
:1009F80008006E088A006D080A00853108000E306C
:100A080025009A009C0180309B0002309D009801CF
:100A18009901F3309E0508002000A00024009D13D2
:100A280020002008240099001C1C182D1908080013
:100A38002000931069086A04031908006A088A00EC
:100A480069080A0085310800200091106B086C04C1
:100A5800031908006C088A006B080A008531080031
:100A68000034003440340034143400345434003436
:100A780024009C0121309D0005309A000800FE00EA
:100A880012001E00FE0B442D003464008001013169
:100A9800890B4A2D003420002108EA002008E900CB
:100AA800080020002108EC002008EB0008002000C6
:100AB8002108EE002008ED000800703021009900A0
:100AC8009801080016302100970008002800171523
:100AD800080020001C15080008000800080008008D
:020000040001F9
:04000E00E4FFFFDE2E
:00000001FF
